{
  "contractName": "EthReact",
  "abi": [
    {
      "inputs": [
        {
          "internalType": "string",
          "name": "_addr",
          "type": "string"
        }
      ],
      "payable": false,
      "stateMutability": "nonpayable",
      "type": "constructor"
    },
    {
      "constant": true,
      "inputs": [],
      "name": "getData",
      "outputs": [
        {
          "internalType": "uint256",
          "name": "",
          "type": "uint256"
        }
      ],
      "payable": false,
      "stateMutability": "view",
      "type": "function"
    },
    {
      "constant": true,
      "inputs": [],
      "name": "getData2",
      "outputs": [
        {
          "internalType": "string",
          "name": "",
          "type": "string"
        }
      ],
      "payable": false,
      "stateMutability": "view",
      "type": "function"
    },
    {
      "constant": false,
      "inputs": [
        {
          "internalType": "address payable",
          "name": "_toAdd",
          "type": "address"
        }
      ],
      "name": "setData",
      "outputs": [],
      "payable": true,
      "stateMutability": "payable",
      "type": "function"
    }
  ],
  "bytecode": "0x6080604052600960015534801561001557600080fd5b506040516104273803806104278339818101604052602081101561003857600080fd5b810190808051604051939291908464010000000082111561005857600080fd5b8382019150602082018581111561006e57600080fd5b825186600182028301116401000000008211171561008b57600080fd5b8083526020830192505050908051906020019080838360005b838110156100bf5780820151818401526020810190506100a4565b50505050905090810190601f1680156100ec5780820380516001836020036101000a031916815260200191505b506040525050508060009080519060200190610109929190610110565b50506101b5565b828054600181600116156101000203166002900490600052602060002090601f016020900481019282601f1061015157805160ff191683800117855561017f565b8280016001018555821561017f579182015b8281111561017e578251825591602001919060010190610163565b5b50905061018c9190610190565b5090565b6101b291905b808211156101ae576000816000905550600101610196565b5090565b90565b610263806101c46000396000f3fe6080604052600436106100345760003560e01c80633bc5de301461003957806361dfdae614610064578063a898fd70146100a8575b600080fd5b34801561004557600080fd5b5061004e610138565b6040518082815260200191505060405180910390f35b6100a66004803603602081101561007a57600080fd5b81019080803573ffffffffffffffffffffffffffffffffffffffff169060200190929190505050610142565b005b3480156100b457600080fd5b506100bd61018c565b6040518080602001828103825283818151815260200191508051906020019080838360005b838110156100fd5780820151818401526020810190506100e2565b50505050905090810190601f16801561012a5780820380516001836020036101000a031916815260200191505b509250505060405180910390f35b6000600154905090565b8073ffffffffffffffffffffffffffffffffffffffff166108fc349081150290604051600060405180830381858888f19350505050158015610188573d6000803e3d6000fd5b5050565b606060008054600181600116156101000203166002900480601f0160208091040260200160405190810160405280929190818152602001828054600181600116156101000203166002900480156102245780601f106101f957610100808354040283529160200191610224565b820191906000526020600020905b81548152906001019060200180831161020757829003601f168201915b505050505090509056fea265627a7a72315820a3eb46f45d7d6592683df979c1d8ad37c853fc914a80ee92d44ba2036732b0f664736f6c63430005100032",
  "source": "//SPDX-License-Identifier: MIT\npragma solidity >= 0.5.0 < 0.7.0;\n\ncontract EthReact {\n    string addr;\n    // address payable toAdd;\n   constructor(string memory _addr) public {\n    addr = _addr;\n   }\n\n\n    uint data =9 ;\n    function getData() external   view  returns (uint){ return data; }\n    function getData2() external view returns( string memory){ return addr; }\n    \n    \n    function setData(address payable _toAdd) external payable { \n         \n       _toAdd.transfer(msg.value);\n     \n      }\n\n      // function setData2(address payable _toAdd ) external payable { \n      //   toAdd = _toAdd; \n      // //  _to.transfer(msg.value);\n     \n      // }\n\n    function setDataPrivate(uint _data) private { data = _data + 10 ; }\n\n}",
  "sourcePath": "G:/languages/Block Chain/web3/New folder/ethereum-react/src/smartContract/contracts/EthReact.sol",
  "compiler": {
    "name": "solc",
    "version": "0.5.16+commit.9c3226ce.Emscripten.clang"
  },
  "schemaVersion": "3.2.3",
  "updatedAt": "2020-08-06T17:36:36.442Z",
  "networkType": "ethereum",
  "devdoc": {
    "methods": {}
  },
  "userdoc": {
    "methods": {}
  }
}